:020000040800F2
:10000000005000205D3400082D0E0008330E00085B
:10001000390E00083F0E0008450E000800000000E1
:100020000000000000000000000000004B0E00086F
:10003000570E000800000000630E00086F0E000855
:10004000A5340008A5340008A5340008A53400082C
:10005000A5340008A5340008A5340008A53400081C
:10006000A5340008A5340008A5340008A53400080C
:10007000A5340008A5340008A5340008A5340008FC
:10008000A5340008A5340008A5340008A5340008EC
:10009000A5340008A5340008A5340008A5340008DC
:1000A000A5340008A5340008A5340008A5340008CC
:1000B000A5340008A5340008A5340008A5340008BC
:1000C000A5340008A5340008A5340008A5340008AC
:1000D000A5340008A5340008A5340008A53400089C
:1000E000A5340008A5340008A5340008000000006D
:1000F0000000000000000000000000000000000000
:0C01000000000000000000005FF808F1A3
:10010C0010B5054C237833B9044B13B10448AFF345
:10011C0000800123237010BD70000020000000003F
:10012C00643D000808B5034B1BB103490348AFF30A
:10013C00008008BD0000000074000020643D000831
:10014C0080F0004002E000BF81F0004142001FBF80
:10015C005FEA410392EA030F7FEA226C7FEA236C89
:10016C006AD04FEA1262D2EB1363C1BFD21841407E
:10017C0048404140B8BF5B42192B88BF704710F014
:10018C00004F40F4000020F07F4018BF404211F0B7
:10019C00004F41F4000121F07F4118BF494292EA1F
:1001AC00030F3FD0A2F1010241FA03FC10EB0C004B
:1001BC00C3F1200301FA03F100F0004302D54942D8
:1001CC0060EB4000B0F5000F13D3B0F1807F06D385
:1001DC0040084FEA310102F10102FE2A51D2B1F17D
:1001EC00004F40EBC25008BF20F0010040EA030072
:1001FC007047490040EB000010F4000FA2F101021F
:10020C00EDD1B0FA80FCACF1080CB2EB0C0200FAA8
:10021C000CF0AABF00EBC25052421843BCBFD040F6
:10022C001843704792F0000F81F4000106BF80F470
:10023C0000000132013BB5E74FEA41037FEA226C33
:10024C0018BF7FEA236C21D092EA030F04D092F0FE
:10025C00000F08BF0846704790EA010F1CBF002032
:10026C00704712F07F4F04D1400028BF40F000408F
:10027C00704712F100723CBF00F50000704700F0AF
:10028C00004343F0FE4040F4000070477FEA2262D6
:10029C0016BF08467FEA23630146420206BF5FEAA7
:1002AC00412390EA010F40F4800070474FF00003A7
:1002BC0004E000BF10F0004348BF40425FEA000C6E
:1002CC0008BF704743F0964301464FF000001CE016
:1002DC0050EA010208BF70474FF000030AE000BF6C
:1002EC0050EA010208BF704711F0004302D54042AA
:1002FC0061EB41015FEA010C02BF8446014600201C
:10030C0043F0B64308BFA3F18053A3F50003BCFA36
:10031C008CF2083AA3EBC25310DB01FA02FC6344E3
:10032C0000FA02FCC2F12002BCF1004F20FA02F2EA
:10033C0043EB020008BF20F00100704702F12002DD
:10034C0001FA02FCC2F1200250EA4C0021FA02F23E
:10035C0043EB020008BF20EADC7070474FF0FF0C43
:10036C001CEAD0521EBF1CEAD15392EA0C0F93EA3E
:10037C000C0F6FD01A4480EA010C400218BF5FEAE0
:10038C0041211ED04FF0006343EA501043EA511153
:10039C00A0FB01310CF00040B1F5000F3EBF49004D
:1003AC0041EAD3715B0040EA010062F17F02FD2A51
:1003BC001DD8B3F1004F40EBC25008BF20F0010034
:1003CC00704790F0000F0CF0004C08BF49024CEA4B
:1003DC00502040EA51207F3AC2BFD2F1FF0340EADD
:1003EC00C250704740F400004FF00003013A5DDC4E
:1003FC0012F1190FDCBF00F000407047C2F100028F
:10040C00410021FA02F1C2F1200200FA02FC5FEA7B
:10041C00310040F1000053EA4C0308BF20EADC70C5
:10042C00704792F0000F00F0004C02BF400010F437
:10043C00000F013AF9D040EA0C0093F0000F01F0E4
:10044C00004C02BF490011F4000F013BF9D041EA06
:10045C000C018FE70CEAD15392EA0C0F18BF93EA08
:10046C000C0F0AD030F0004C18BF31F0004CD8D132
:10047C0080EA010000F00040704790F0000F17BFB9
:10048C0090F0004F084691F0000F91F0004F14D0FF
:10049C0092EA0C0F01D142020FD193EA0C0F03D157
:1004AC004B0218BF084608D180EA010000F000405A
:1004BC0040F0FE4040F40000704740F0FE4040F435
:1004CC00400070474FF0FF0C1CEAD0521EBF1CEAD4
:1004DC00D15392EA0C0F93EA0C0F69D0A2EB0302F2
:1004EC0080EA010C49024FEA402037D04FF080538C
:1004FC0043EA111143EA10130CF000408B4238BF51
:10050C005B0042F17D024FF4000C8B4224BF5B1A5E
:10051C0040EA0C00B3EB510F24BFA3EB510340EAAC
:10052C005C00B3EB910F24BFA3EB910340EA9C005A
:10053C00B3EBD10F24BFA3EBD10340EADC001B01CA
:10054C0018BF5FEA1C1CE0D1FD2A3FF650AF8B426E
:10055C0040EBC25008BF20F0010070470CF0004C7B
:10056C004CEA50207F32C2BFD2F1FF0340EAC250A6
:10057C00704740F400004FF00003013A37E792F067
:10058C00000F00F0004C02BF400010F4000F013AC5
:10059C00F9D040EA0C0093F0000F01F0004C02BFC0
:1005AC00490011F4000F013BF9D041EA0C0195E729
:1005BC000CEAD15392EA0C0F08D142027FF47DAFC2
:1005CC0093EA0C0F7FF470AF084676E793EA0C0FB2
:1005DC0004D14B023FF44CAF08466EE730F0004CB0
:1005EC0018BF31F0004CCAD130F000427FF45CAF40
:1005FC0031F000437FF43CAF5FE700BF42000ED206
:10060C00B2F1FE4F0BD34FF09E03B3EB126209D441
:10061C004FEA002343F0004323FA02F070474FF0F7
:10062C000000704712F1610F01D1420202D14FF06C
:10063C00FF3070474FF00000704700BF80B586B0A8
:10064C0002AF0346FB71FA1D4FF4FA7300930123BA
:10065C009021204801F036F807F10E024FF4FA739E
:10066C000093022390211B4801F02AF9FB891B0AF5
:10067C009BB21A46FB891B021343DB119BB2C3F3DB
:10068C0008039BB2FB81FB8903F48073002B12D00F
:10069C00FB8983F4FF739BB202339BB2FB81FB8912
:1006AC001846FFF707FE03464FF03F411846FFF789
:1006BC0055FE03460AE0FB891846FFF7FBFD03468F
:1006CC004FF07C511846FFF749FE03461846103789
:1006DC00BD4680BDDC00002080B500AF0020FFF7D8
:1006EC00ADFF0346184680BD80B500AF0220FFF772
:1006FC00A5FF0346184680BD80B500AF0320FFF769
:10070C009DFF0346184680BD80B586B002AF0346F8
:10071C00FB71FB7923F00F03FB73FB791B01BB739C
:10072C00FB7B43F00C03DBB23B72FB7B43F0080317
:10073C00DBB27B72BB7B43F00C03DBB2BB72BB7BCB
:10074C0043F00803DBB2FB7207F108026423009349
:10075C0004234E21034800F0B5FF00BF1037BD46FF
:10076C0080BD00BFDC00002080B586B002AF034620
:10077C00FB71FB7923F00F03FB73FB791B01BB733C
:10078C00FB7B43F00D03DBB23B72FB7B43F00903B5
:10079C00DBB27B72BB7B43F00D03DBB2BB72BB7B6A
:1007AC0043F00903DBB2FB7207F1080264230093E8
:1007BC0004234E21034800F085FF00BF1037BD46CF
:1007CC0080BD00BFDC00002080B582B000AF0020EF
:1007DC00FFF79AFF00237B6005E02020FFF7C4FFA2
:1007EC007B6801337B607B68632BF6DD00BF0837C9
:1007FC00BD4680BD80B500AF322000F0CDFB30206F
:10080C00FFF782FF052000F0C7FB3020FFF77CFFCD
:10081C00012000F0C1FB3020FFF776FF0A2000F02A
:10082C00BBFB2020FFF770FF0A2000F0B5FB28204F
:10083C00FFF76AFF012000F0AFFB0820FFF764FF11
:10084C00012000F0A9FB0120FFF75EFF012000F062
:10085C00A3FB0620FFF758FF012000F09DFB0C20A6
:10086C00FFF752FF00BF80BD80B582B000AF78604B
:10087C0006E07B685A1C7A601B781846FFF774FFF9
:10088C007B681B78002BF4D100BF0837BD4680BDB8
:10089C0080B483B000AF0346FB71FB791B09DBB25C
:1008AC001A4613469B0013445B001A46FB7903F06F
:1008BC000F03134418460C37BD4680BC704700002C
:1008CC0080B586B004AF4FF47A730293072301937B
:1008DC003B46009301230022D0211F4801F04AFA25
:1008EC003B781846FFF7D4FF0346DAB21B4B1A705D
:1008FC007B781846FFF7CCFF0346DAB2174B5A70D9
:10090C00BB781846FFF7C4FF0346DAB2134B9A7054
:10091C00FB781846FFF7BCFF0346DAB20F4BDA70D0
:10092C003B791846FFF7B4FF0346DAB20B4B1A714A
:10093C007B791846FFF7ACFF0346DAB2074B5A71C6
:10094C00BB791846FFF7A4FF0346DAB2034B9A7142
:10095C0000BF0837BD4680BDDC0000203C010020F4
:10096C0090B587B002AFFFF7BFFE0246584B1A6036
:10097C00FFF7C2FE0246574B1A6000F0ABFA00F0CC
:10098C00C3F800F05FF900F005F900F031F9FFF75A
:10099C0031FFFFF7A1FE02464F4B1A604E4B1B680E
:1009AC004E491846FFF7DAFC03461A464A4B1A60C2
:1009BC00494B1B684A491846FFF7D0FC0346494986
:1009CC001846FFF77FFD034647491846FFF7BEFB65
:1009DC0003461A46454B1A603F4B1B681846FFF7F7
:1009EC000DFE0246424BA3FB02235C093A4B1B68EB
:1009FC001846FFF703FE02463D4BA3FB02135B09AF
:100A0C00642101FB03F3D31A38462246394902F01C
:100A1C0077FD9420FFF778FE3B461846FFF724FF3E
:100A2C00324B1B681846FFF7E9FD0246304BA3FB1F
:100A3C0002235C092D4B1B681846FFF7DFFD0246AD
:100A4C002B4BA3FB02135B09642101FB03F3D31AA9
:100A5C0038462246284902F053FDD420FFF754FEB5
:100A6C003B461846FFF700FFFFF72AFF234B9B7806
:100A7C001A46224B5B781946204B1B78384600935C
:100A8C000B461F4902F03CFD8620FFF73DFE3B461E
:100A9C001846FFF7E9FE194B1B791A46174B5B7981
:100AAC001946164B9B79384600930B46154902F0B4
:100ABC0027FDC520FFF728FE3B461846FFF7D4FE5E
:100ACC004FF47A7000F068FAFFF77EFE61E700BF22
:100ADC003001002044010020340100200000C842F5
:100AEC00000010410000A0400000484538010020E3
:100AFC001F85EB517C3D0008903D00083C01002017
:100B0C00A83D0008B83D000880B590B000AF07F1D3
:100B1C00180328220021184602F0EAFC3B1D002293
:100B2C001A605A609A60DA601A610123BB614FF453
:100B3C008033FB6100233B620123BB6202237B6396
:100B4C004FF48033BB634FF4E013FB6307F11803DE
:100B5C00184601F085FF0346002B01D000F0A0F8E9
:100B6C000F237B600223BB600023FB604FF4806388
:100B7C003B6100237B613B1D0221184602F0F0F91A
:100B8C000346002B01D000F08BF800BF4037BD4668
:100B9C0080BD000080B500AF124B134A1A60114B98
:100BAC00124A5A600F4B00229A600E4B0022DA60F8
:100BBC000C4B4FF480421A610A4B00225A61094BCC
:100BCC0000229A61074B0022DA61064B00221A625E
:100BDC00044800F03FFC0346002B01D000F060F805
:100BEC0000BF80BDDC00002000540040A086010046
:100BFC0080B500AF114B124A1A60104B4FF41642DD
:100C0C005A600E4B00229A600C4B0022DA600B4BA0
:100C1C0000221A61094B0C225A61084B00229A617E
:100C2C00064B0022DA61054802F036FB0346002B26
:100C3C0001D000F035F800BF80BD00BF9800002047
:100C4C000048004080B485B000AF144A134B9B6938
:100C5C0043F020039361114B9B6903F02003FB606D
:100C6C00FB680E4A0D4B9B6943F0080393610B4BD9
:100C7C009B6903F00803BB60BB68084A074B9B6980
:100C8C0043F004039361054B9B6903F004037B6001
:100C9C007B6800BF1437BD4680BC70470010024013
:100CAC0080B400AF72B6FEE780B485B000AF154AD1
:100CBC00144B9B6943F001039361124B9B6903F046
:100CCC000103BB60BB680F4A0E4BDB6943F08053DA
:100CDC00D3610C4BDB6903F080537B607B680A4B60
:100CEC005B68FB60FB6823F0E063FB60FB6843F030
:100CFC000073FB60044AFB68536000BF1437BD46A9
:100D0C0080BC7047001002400000014080B588B0E4
:100D1C0000AF786007F1100300221A605A609A60E5
:100D2C00DA607B681B68154A934223D1144A144B32
:100D3C009B6943F008039361114B9B6903F0080313
:100D4C00FB60FB68C0233B6112237B610323FB61C7
:100D5C0007F1100319460B4800F022FA084A084B19
:100D6C00DB6943F40013D361054BDB6903F4001317
:100D7C00BB60BB6800BF2037BD4680BD005400403F
:100D8C0000100240000C014080B588B000AF7860C4
:100D9C0007F1100300221A605A609A60DA607B68CF
:100DAC001B681C4A934231D11B4A1B4BDB6943F431
:100DBC008023D361184BDB6903F48023FB60FB6851
:100DCC00154A154B9B6943F008039361124B9B69C1
:100DDC0003F00803BB60BB684FF480633B610223E4
:100DEC007B610323FB6107F1100319460B4800F0EC
:100DFC00D7F94FF400633B6100237B610023BB6197
:100E0C0007F110031946054800F0CAF900BF203756
:100E1C00BD4680BD0048004000100240000C01405F
:100E2C0080B400AFFEE780B400AFFEE780B400AF43
:100E3C00FEE780B400AFFEE780B400AFFEE780B4FD
:100E4C0000AF00BFBD4680BC704780B400AF00BF90
:100E5C00BD4680BC704780B400AF00BFBD4680BCAF
:100E6C00704780B500AF00F07BF800BF80BD00007C
:100E7C0080B584B000AF7860114B1B68002B02D199
:100E8C000F4B104A1A600E4B1B68FB600C4B1A6818
:100E9C007B6813446A46934207D902F0FFFA024674
:100EAC000C2313604FF0FF3306E0054B1A687B6888
:100EBC001344034A1360FB6818461037BD4680BDC7
:100ECC008C0000205001002080B400AF00BFBD4654
:100EDC0080BC704780B500AF084A084B1B6843F0D4
:100EEC0010031360032000F027F90F2000F008F81E
:100EFC00FFF7DAFE0023184680BD00BF0020024039
:100F0C0080B582B000AF7860124B1A68124B1B7818
:100F1C0019464FF47A73B3FBF1F3B2FBF3F31846B3
:100F2C0000F031F90346002B01D001230EE07B6861
:100F3C000F2B0AD8002279684FF0FF3000F007F928
:100F4C00064A7B681360002300E00123184608372B
:100F5C00BD4680BD000000200800002004000020D9
:100F6C0080B400AF054B1B781A46054B1B68134425
:100F7C00034A136000BFBD4680BC704708000020C8
:100F8C004801002080B400AF024B1B681846BD46D8
:100F9C0080BC70474801002080B584B000AF7860F9
:100FAC00FFF7F0FFB8607B68FB60FB68B3F1FF3FB5
:100FBC0005D0094B1B781A46FB681344FB6000BF35
:100FCC00FFF7E0FF0246BB68D21AFB689A42F7D3E0
:100FDC0000BF1037BD4680BD0800002080B485B02E
:100FEC0000AF78607B6803F00703FB600C4BDB6899
:100FFC00BB60BA684FF6FF031340BB60FB681A0274
:10100C00BB68134343F0BF6343F40033BB60044A33
:10101C00BB68D36000BF1437BD4680BC704700BFAF
:10102C0000ED00E080B400AF044BDB681B0A03F05A
:10103C0007031846BD4680BC704700BF00ED00E0BA
:10104C0080B483B000AF03463960FB7197F9073069
:10105C00002B0ADB0D4997F907303A68D2B212011E
:10106C00D2B20B4483F800230AE00949FB7903F060
:10107C000F03043B3A68D2B21201D2B20B441A7677
:10108C0000BF0C37BD4680BC704700BF00E100E0DC
:10109C0000ED00E080B489B000AFF860B9607A6010
:1010AC00FB6803F00703FB61FB69C3F10703042B27
:1010BC0028BF0423BB61FB690433062B02D9FB69EF
:1010CC00033B00E000237B610122BB6902FA03F3BE
:1010DC005A1EBB681A407B699A4001217B6901FA50
:1010EC0003F3591E7B680B40134318462437BD4647
:1010FC0080BC704780B582B000AF78607B68013BE4
:10110C00B3F1807F01D301230FE00A4A7B68013BD6
:10111C0053600F214FF0FF30FFF792FF054B002279
:10112C009A60044B07221A60002318460837BD4604
:10113C0080BD00BF10E000E080B582B000AF7860E9
:10114C007868FFF74BFF00BF0837BD4680BD80B500
:10115C0086B000AF0346B9607A60FB7300237B61F5
:10116C00FFF760FF78617A68B9687869FFF792FFDA
:10117C00024697F90F3011461846FFF761FF00BF82
:10118C001837BD4680BD80B582B000AF78607868F6
:10119C00FFF7B0FF034618460837BD4680BD000078
:1011AC0080B48BB000AF7860396000237B62002381
:1011BC003B6227E101227B6A02FA03F3FB613B6885
:1011CC001A68FB691340BB61BA69FB699A4240F02B
:1011DC0016813B685B68122B34D0122B0DD8022B76
:1011EC002BD0022B04D8002B31D0012B1CD048E083
:1011FC00032B43D0112B1BD043E0894A934226D0BA
:10120C00874A934206D8874A934220D0864A934213
:10121C001DD036E0854A934219D0854A934216D0A8
:10122C00844A934213D02CE03B68DB683B6228E095
:10123C003B68DB6804333B6223E03B68DB680833C4
:10124C003B621EE03B68DB680C333B6219E03B6899
:10125C009B68002B02D104233B6212E03B689B6825
:10126C00012B05D108233B627B68FA691A6108E0FF
:10127C0008233B627B68FA695A6102E000233B62F7
:10128C0000BFBB69FF2B01D87B6801E07B6804338E
:10129C007B61BB69FF2B02D87B6A9B0002E07B6AF7
:1012AC00083B9B003B617B691A680F213B6901FA83
:1012BC0003F3DB431A40396A3B6901FA03F31A431F
:1012CC007B691A603B685B6803F08053002B00F06D
:1012DC009680594A584B9B6943F001039361564BD6
:1012EC009B6903F00103BB60BB68544A7B6A9B0893
:1012FC00023352F82330FB607B6A03F003039B003C
:10130C000F2202FA03F3DB43FA681340FB607B689D
:10131C004B4A934213D07B684A4A93420DD07B6868
:10132C00494A934207D07B68484A934201D1032330
:10133C0006E0042304E0022302E0012300E0002382
:10134C007A6A02F0030292009340FA681343FB603E
:10135C003A497B6A9B080233FA6841F823203B68C0
:10136C005B6803F48033002B06D03949384B1A687C
:10137C00BB6913430B6006E03549354B1A68BB69F2
:10138C00DB4313400B603B685B6803F40033002BBA
:10139C0006D02F492E4B5A68BB6913434B6006E0AD
:1013AC002B492B4B5A68BB69DB4313404B603B68A2
:1013BC005B6803F48013002B06D02549244B9A68F4
:1013CC00BB6913438B6006E02149214B9A68BB69CA
:1013DC00DB4313408B603B685B6803F40013002B0A
:1013EC0006D01B491A4BDA68BB691343CB6006E085
:1013FC001749174BDA68BB69DB431340CB607B6A38
:10140C0001337B623B681A687B6A22FA03F3002B78
:10141C007FF4D0AE00BF2C37BD4680BC704700BFF8
:10142C0000002110000011100000121000003110FB
:10143C000000321000002210001002400000014099
:10144C0000080140000C0140001001400014014054
:10145C000004014090B585B000AF78607B68002B2C
:10146C0001D101231FE17B6893F83D30DBB2002BE7
:10147C0006D17B68002283F83C207868FFF746FC95
:10148C007B68242283F83D207B681B687A6812688D
:10149C00126822F001021A607B681B687A68126875
:1014AC00126842F400421A607B681B687A68126802
:1014BC00126822F400421A6001F0A8FEF8607B6802
:1014CC005B687B4A934207D8FB687A4A934294BF85
:1014DC0001230023DBB206E0FB68774A934294BFFA
:1014EC0001230023DBB2002B01D00123DBE0FB68DE
:1014FC00724AA2FB03239B0CBB607B681B687A6857
:10150C001268526822F03F01BA680A435A607B683D
:10151C001A687B681B681B6A23F03F017B685B6859
:10152C006348834202D8BB68013309E0BB684FF4BF
:10153C00967000FB03F36248A0FB03039B09013385
:10154C000B4313627B6818687B681B68DB6923F4A8
:10155C004F4222F0FF027B685B6855498B420DD8E5
:10156C00FB68591E7B685B685B00B1FBF3F30133CE
:10157C00C3F30B03042B38BF04234FE07B689B6839
:10158C00002B11D1FB685C1E7B6859680B465B0015
:10159C000B44B4FBF3F30133C3F30B03002B0CBF6D
:1015AC0001230023DBB212E0FB685C1E7B685968E8
:1015BC000B469B000B4499000B44B4FBF3F3013333
:1015CC00C3F30B03002B0CBF01230023DBB2002B56
:1015DC0001D0012322E07B689B68002B0ED1FB68B5
:1015EC005C1E7B6859680B465B000B44B4FBF3F341
:1015FC000133C3F30B0343F400430FE0FB685C1EA1
:10160C007B6859680B469B000B4499000B44B4FB58
:10161C00F3F30133C3F30B0343F440431343C361AC
:10162C007B681B687A681268126822F0C0017A68BD
:10163C00D0697A68126A02430A431A607B681A6896
:10164C007B681B689B6823F4034323F0FF037968D2
:10165C0008697968C96801430B4393607B681B6810
:10166C007A681268D26822F0FF017A6850697A6849
:10167C00926902430A43DA607B681B687A681268D5
:10168C00126842F001021A607B6800221A647B68BF
:10169C00202283F83D207B6800221A637B6800229D
:1016AC0083F83E20002318461437BD4690BD00BF7A
:1016BC00A08601007F841E00FF083D0083DE1B43D3
:1016CC00D34D621080B588B002AFF8607A601A46CC
:1016DC000B467B8113463B81FFF754FC7861FB681A
:1016EC0093F83D30DBB2202B40F0E0807B69009317
:1016FC00192301227049F86800F0D6FF0346002B2D
:10170C0001D00223D3E0FB6893F83C30012B01D1CC
:10171C000223CCE0FB68012283F83C20FB681B68A9
:10172C001B6803F00103012B07D0FB681B68FA68E8
:10173C001268126842F001021A60FB681B68FA68B2
:10174C001268126822F400621A60FB68212283F886
:10175C003D20FB68102283F83E20FB6800221A64AF
:10176C00FB687A685A62FB683A895A85FB685B8D1C
:10177C009AB2FB681A85FB68504ADA6279897B69F0
:10178C003A6AF86800F058FD0346002B01D001239B
:10179C008DE000233B61FB681B685B693B61FB6868
:1017AC001B689B693B613B6966E07A69396AF8683A
:1017BC0001F050F80346002B0DD0FB681B6C042B7A
:1017CC0007D1FB681B68FA681268126842F4007251
:1017DC001A6001236BE0FB681B68FA68526A127886
:1017EC001A61FB685B6A5A1CFB685A62FB685B8D6A
:1017FC009BB2013B9AB2FB685A85FB681B8D013B7F
:10180C009AB2FB681A85FB681B685B6903F00403DA
:10181C00042B1BD1FB681B8D002B17D0FB681B689E
:10182C00FA68526A12781A61FB685B6A5A1CFB6888
:10183C005A62FB685B8D9BB2013B9AB2FB685A857E
:10184C00FB681B8D013B9AB2FB681A857A69396A71
:10185C00F86801F040F80346002B0DD0FB681B6CB8
:10186C00042B07D1FB681B68FA681268126842F4F3
:10187C0000721A6001231AE0FB681B8D002B94D1B7
:10188C00FB681B68FA681268126842F400721A60EE
:10189C00FB68202283F83D20FB68002283F83E2061
:1018AC00FB68002283F83C20002300E0022318464A
:1018BC001837BD4680BD00BF020010000000FFFFBE
:1018CC0080B58CB002AFF8607A601A460B467B810B
:1018DC0013463B8100233B62FFF754FB7862FB68A5
:1018EC0093F83D30DBB2202B40F038827B6A0093BA
:1018FC00192301227E49F86800F0D6FE0346002B1E
:10190C0001D002232BE2FB6893F83C30012B01D170
:10191C00022324E2FB68012283F83C20FB681B684D
:10192C001B6803F00103012B07D0FB681B68FA68E6
:10193C001268126842F001021A60FB681B68FA68B0
:10194C001268126822F400621A60FB68222283F883
:10195C003D20FB68102283F83E20FB6800221A64AD
:10196C00FB687A685A62FB683A895A85FB685B8D1A
:10197C009AB2FB681A85FB685E4ADA6279897B6ADF
:10198C003A6BF86800F0DAFC0346002B01D0012317
:10199C00E5E1FB681B8D002B13D10023FB61FB6879
:1019AC001B685B69FB61FB681B689B69FB61FB69DE
:1019BC00FB681B68FA681268126842F400721A60BD
:1019CC00B9E1FB681B8D012B1DD1FB681B68FA6804
:1019DC001268126822F480621A6072B60023BB612E
:1019EC00FB681B685B69BB61FB681B689B69BB611F
:1019FC00BB69FB681B68FA681268126842F40072D3
:101A0C001A6062B697E1FB681B8D022B1DD1FB6837
:101A1C001B68FA681268126842F400621A6072B6A7
:101A2C0000237B61FB681B685B697B61FB681B683F
:101A3C009B697B617B69FB681B68FA68126812689A
:101A4C0022F480621A6062B675E1FB681B68FA6862
:101A5C001268126842F480621A6000233B61FB68D2
:101A6C001B685B693B61FB681B689B693B613B695D
:101A7C0061E1FB681B8D032B00F21A81FB681B8D47
:101A8C00012B23D17A6A396BF86800F065FF0346A5
:101A9C00002B01D0012362E1FB685B6AFA681268D3
:101AAC001269D2B21A70FB685B6A5A1CFB685A62E4
:101ABC00FB681B8D013B9AB2FB681A85FB685B8D3A
:101ACC009BB2013B9AB2FB685A8534E1FB681B8DD3
:101ADC00022B50D17B6A00933B6B00220649F868BD
:101AEC0000F0E2FD0346002B08D0012337E100BFD4
:101AFC00020010000000FFFF0400010072B6FB683A
:101B0C001B68FA681268126842F400721A60FB686B
:101B1C005B6AFA6812681269D2B21A70FB685B6A67
:101B2C005A1CFB685A62FB681B8D013B9AB2FB681E
:101B3C001A85FB685B8D9BB2013B9AB2FB685A8598
:101B4C0062B6FB685B6AFA6812681269D2B21A70E4
:101B5C00FB685B6A5A1CFB685A62FB681B8D013B75
:101B6C009AB2FB681A85FB685B8D9BB2013B9AB2FB
:101B7C00FB685A85DFE07B6A00933B6B00227A4955
:101B8C00F86800F091FD0346002B01D00123E6E03C
:101B9C00FB681B68FA681268126822F480621A608B
:101BAC0072B6FB685B6AFA6812681269D2B21A7074
:101BBC00FB685B6A5A1CFB685A62FB681B8D013B15
:101BCC009AB2FB681A85FB685B8D9BB2013B9AB29B
:101BDC00FB685A85654B1B68DB08654AA2FB03232F
:101BEC001A0A13469B001344DA00D31A3B623B6A71
:101BFC00013B3B623B6A002B17D1FB6800221A6346
:101C0C00FB68202283F83D20FB68002283F83E20ED
:101C1C00FB681B6C43F02002FB681A6462B6FB681D
:101C2C00002283F83C20012399E0FB681B685B6968
:101C3C0003F00403042BDAD1FB681B68FA68126802
:101C4C00126842F400721A60FB685B6AFA681268E8
:101C5C001269D2B21A70FB685B6A5A1CFB685A6232
:101C6C00FB681B8D013B9AB2FB681A85FB685B8D88
:101C7C009BB2013B9AB2FB685A8562B6FB685B6A01
:101C8C00FA6812681269D2B21A70FB685B6A5A1C45
:101C9C00FB685A62FB681B8D013B9AB2FB681A8584
:101CAC00FB685B8D9BB2013B9AB2FB685A8542E0A4
:101CBC007A6A396BF86800F04FFE0346002B01D0AE
:101CCC0001234CE0FB685B6AFA6812681269D2B2B5
:101CDC001A70FB685B6A5A1CFB685A62FB681B8DA6
:101CEC00013B9AB2FB681A85FB685B8D9BB2013B8A
:101CFC009AB2FB685A85FB681B685B6903F00403A6
:101D0C00042B18D1FB685B6AFA6812681269D2B2AC
:101D1C001A70FB685B6A5A1CFB685A62FB681B8D65
:101D2C00013B9AB2FB681A85FB685B8D9BB2013B49
:101D3C009AB2FB685A85FB681B8D002B7FF499AE19
:101D4C00FB68202283F83D20FB68002283F83E20AC
:101D5C00FB68002283F83C20002300E00223184695
:101D6C002837BD4680BD00BF0400010000000020E4
:101D7C0089B5F81480B58CB002AFF86008461146EE
:101D8C001A4603467B810B463B811346FB8000239E
:101D9C003B62FFF7F7F87862FB6893F83D30DBB2F3
:101DAC00202B40F03D827B6A00931923012281494C
:101DBC00F86800F079FC0346002B01D0022330E2D6
:101DCC00FB6893F83C30012B01D1022329E2FB681C
:101DDC00012283F83C20FB681B681B6803F001039D
:101DEC00012B07D0FB681B68FA681268126842F076
:101DFC0001021A60FB681B68FA681268126822F408
:101E0C0000621A60FB68222283F83D20FB684022A6
:101E1C0083F83E20FB6800221A64FB683A6B5A6216
:101E2C00FB68BA8E5A85FB685B8D9AB2FB681A8583
:101E3C00FB68614ADA62F8883A8979897B6A01938E
:101E4C00BB6B00930346F86800F046FB0346002B7F
:101E5C0001D00123E5E1FB681B8D002B13D100237E
:101E6C00FB61FB681B685B69FB61FB681B689B691A
:101E7C00FB61FB69FB681B68FA681268126842F424
:101E8C0000721A60B9E1FB681B8D012B1DD1FB6838
:101E9C001B68FA681268126822F480621A6072B6C3
:101EAC000023BB61FB681B685B69BB61FB681B683B
:101EBC009B69BB61BB69FB681B68FA681268126896
:101ECC0042F400721A6062B697E1FB681B8D022B1C
:101EDC001DD1FB681B68FA681268126842F4006234
:101EEC001A6072B600237B61FB681B685B697B61BF
:101EFC00FB681B689B697B617B69FB681B68FA68E4
:101F0C001268126822F480621A6062B675E1FB688E
:101F1C001B68FA681268126842F480621A60002327
:101F2C003B61FB681B685B693B61FB681B689B69D9
:101F3C003B613B6961E1FB681B8D032B00F21A814D
:101F4C00FB681B8D012B23D17A6AB96BF86800F002
:101F5C0003FD0346002B01D0012362E1FB685B6AA1
:101F6C00FA6812681269D2B21A70FB685B6A5A1C62
:101F7C00FB685A62FB681B8D013B9AB2FB681A85A1
:101F8C00FB685B8D9BB2013B9AB2FB685A8534E1CE
:101F9C00FB681B8D022B50D17B6A0093BB6B00221C
:101FAC000649F86800F080FB0346002B08D001239B
:101FBC0037E100BF020010000000FFFF0400010029
:101FCC0072B6FB681B68FA681268126842F40072F9
:101FDC001A60FB685B6AFA6812681269D2B21A70EE
:101FEC00FB685B6A5A1CFB685A62FB681B8D013BE1
:101FFC009AB2FB681A85FB685B8D9BB2013B9AB267
:10200C00FB685A8562B6FB685B6AFA6812681269EB
:10201C00D2B21A70FB685B6A5A1CFB685A62FB6886
:10202C001B8D013B9AB2FB681A85FB685B8D9BB2DA
:10203C00013B9AB2FB685A85DFE07B6A0093BB6B6D
:10204C0000227A49F86800F02FFB0346002B01D0E0
:10205C000123E6E0FB681B68FA681268126822F438
:10206C0080621A6072B6FB685B6AFA681268126961
:10207C00D2B21A70FB685B6A5A1CFB685A62FB6826
:10208C001B8D013B9AB2FB681A85FB685B8D9BB27A
:10209C00013B9AB2FB685A85654B1B68DB08654AA5
:1020AC00A2FB03231A0A13469B001344DA00D31A2B
:1020BC003B623B6A013B3B623B6A002B17D1FB68DE
:1020CC0000221A63FB68202283F83D20FB68002263
:1020DC0083F83E20FB681B6C43F02002FB681A64FB
:1020EC0062B6FB68002283F83C20012399E0FB6870
:1020FC001B685B6903F00403042BDAD1FB681B68D3
:10210C00FA681268126842F400721A60FB685B6A23
:10211C00FA6812681269D2B21A70FB685B6A5A1CB0
:10212C00FB685A62FB681B8D013B9AB2FB681A85EF
:10213C00FB685B8D9BB2013B9AB2FB685A8562B619
:10214C00FB685B6AFA6812681269D2B21A70FB6893
:10215C005B6A5A1CFB685A62FB681B8D013B9AB286
:10216C00FB681A85FB685B8D9BB2013B9AB2FB68DE
:10217C005A8542E07A6AB96BF86800F0EDFB0346C9
:10218C00002B01D001234CE0FB685B6AFA681268F3
:10219C001269D2B21A70FB685B6A5A1CFB685A62ED
:1021AC00FB681B8D013B9AB2FB681A85FB685B8D43
:1021BC009BB2013B9AB2FB685A85FB681B685B6952
:1021CC0003F00403042B18D1FB685B6AFA681268ED
:1021DC001269D2B21A70FB685B6A5A1CFB685A62AD
:1021EC00FB681B8D013B9AB2FB681A85FB685B8D03
:1021FC009BB2013B9AB2FB685A85FB681B8D002B86
:10220C007FF499AEFB68202283F83D20FB68002206
:10221C0083F83E20FB68002283F83C20002300E07A
:10222C00022318462837BD4680BD00BF04000100BC
:10223C000000002089B5F81480B588B002AFF860B2
:10224C007A603B600B467B81FB68DB6A7B617B6958
:10225C00082B06D07B69012B03D07B6913F5803FDB
:10226C0008D1FB681B68FA681268126842F4807225
:10227C001A600BE0FB681B6B122B07D1FB681B6809
:10228C00FA681268126842F480721A603B68009314
:10229C007B6800224FF00111F86800F005FA034644
:1022AC00002B0DD0FB681B681B6803F48073B3F51F
:1022BC00807F03D1FB684FF400721A64032334E06F
:1022CC00FB681B69B3F5804F07D1FB681B687A89E3
:1022DC00D2B202F0FE021A611BE0FB681B687A891D
:1022EC00D211D2B202F00602D2B262F00F02D2B216
:1022FC001A613B687A680F49F86800F02CFA0346BB
:10230C00002B01D0012310E0FB681B687A89D2B244
:10231C001A613B687A680849F86800F01CFA0346B1
:10232C00002B01D0012300E0002318461837BD46CE
:10233C0080BD00BF080001000200010080B588B01C
:10234C0002AFF8607A603B600B467B81FB68DB6A0E
:10235C007B61FB681B68FA681268126842F4806241
:10236C001A607B69082B06D07B69012B03D07B6933
:10237C0013F5803F08D1FB681B68FA681268126875
:10238C0042F480721A600BE0FB681B6B112B07D1B7
:10239C00FB681B68FA681268126842F480721A6053
:1023AC003B6800937B6800224FF00111F86800F045
:1023BC007BF90346002B0DD0FB681B681B6803F4EC
:1023CC008073B3F5807F03D1FB684FF400721A64FD
:1023DC00032379E0FB681B69B3F5804F08D1FB68D8
:1023EC001B687A89D2B242F00102D2B21A615FE064
:1023FC00FB681B687A89D211D2B202F00602D2B203
:10240C0062F00F02D2B21A613B687A683049F86800
:10241C0000F0A1F90346002B01D0012354E0FB6826
:10242C001B687A89D2B21A613B687A682949F868C4
:10243C0000F091F90346002B01D0012344E0002366
:10244C003B61FB681B685B693B61FB681B689B69B4
:10245C003B613B69FB681B68FA681268126842F4BE
:10246C0080721A603B6800937B6800224FF0011168
:10247C00F86800F019F90346002B0DD0FB681B68B7
:10248C001B6803F48073B3F5807F03D1FB684FF4B2
:10249C0000721A64032317E0FB681B687A89D21157
:1024AC00D2B202F00602D2B262F00E02D2B21A61BD
:1024BC003B687A680749F86800F04DF90346002B31
:1024CC0001D0012300E0002318461837BD4680BD1B
:1024DC00080001000200010080B588B002AFF8606E
:1024EC00084611461A4603467B810B463B81134630
:1024FC00FB80FB681B68FA681268126842F4806201
:10250C001A60FB681B68FA681268126842F48072E1
:10251C001A607B6A00933B6A00224FF00111F86845
:10252C0000F0C2F80346002B0DD0FB681B681B683B
:10253C0003F48073B3F5807F03D1FB684FF4007212
:10254C001A640323A9E0FB681B687A89D2B202F0F3
:10255C00FE021A617B6A3A6A5249F86800F0FBF88D
:10256C000346002B01D0012397E000237B61FB681D
:10257C001B685B697B61FB681B689B697B617B6982
:10258C007A6A396AF86800F065F90346002B0DD0B9
:10259C00FB681B6C042B07D1FB681B68FA6812687C
:1025AC00126842F400721A60012376E0FB88012B5A
:1025BC0005D1FB681B683A89D2B21A6121E0FB682D
:1025CC001B683A89120A92B2D2B21A617A6A396AD3
:1025DC00F86800F03FF90346002B0DD0FB681B6C2C
:1025EC00042B07D1FB681B68FA681268126842F466
:1025FC0000721A60012350E0FB681B683A89D2B262
:10260C001A617A6A396AF86800F024F90346002BDB
:10261C000DD0FB681B6C042B07D1FB681B68FA6898
:10262C001268126842F400721A60012335E0FB68EC
:10263C001B68FA681268126842F480721A607B6A2E
:10264C0000933B6A00224FF00111F86800F02CF85F
:10265C000346002B0DD0FB681B681B6803F48073CA
:10266C00B3F5807F03D1FB684FF400721A64032327
:10267C0013E0FB681B687A89D2B242F00102D2B235
:10268C001A617B6A3A6A0749F86800F064F80346F5
:10269C00002B01D0012300E0002318461837BD465B
:1026AC0080BD00BF0200010080B584B000AFF860AF
:1026BC00B9603B601346FB7125E03B68B3F1FF3F0B
:1026CC0021D0FEF75FFC0246BB69D21A3B689A42E6
:1026DC0002D83B68002B16D1FB6800221A63FB68FA
:1026EC00202283F83D20FB68002283F83E20FB6803
:1026FC001B6C43F02002FB681A64FB68002283F811
:10270C003C20012323E0BB681B0CDBB2012B0DD159
:10271C00FB681B685B69DA43BB6813409BB2002BF8
:10272C000CBF01230023DBB21A460CE0FB681B68CC
:10273C009B69DA43BB6813409BB2002B0CBF01238F
:10274C000023DBB21A46FB799A42B6D00023184616
:10275C001037BD4680BD80B584B000AFF860B9605D
:10276C007A603B6051E0FB681B685B6903F4806333
:10277C00B3F5806F23D1FB681B68FA681268126886
:10278C0042F400721A60FB681B686FF480625A6135
:10279C00FB6800221A63FB68202283F83D20FB684B
:1027AC00002283F83E20FB681B6C43F00402FB689C
:1027BC001A64FB68002283F83C20012346E07B6806
:1027CC00B3F1FF3F21D0FEF7DDFB02463B68D21A86
:1027DC007B689A4202D87B68002B16D1FB680022DA
:1027EC001A63FB68202283F83D20FB68002283F8E3
:1027FC003E20FB681B6C43F02002FB681A64FB68EC
:10280C00002283F83C20012320E0BB681B0CDBB2C8
:10281C00012B0CD1FB681B685B69DA43BB68134066
:10282C009BB2002B14BF01230023DBB20BE0FB682F
:10283C001B689B69DA43BB6813409BB2002B14BF27
:10284C0001230023DBB2002B8DD100231846103757
:10285C00BD4680BD80B584B000AFF860B9607A60C9
:10286C002DE0F86800F0CEF80346002B01D00123D0
:10287C002DE0BB68B3F1FF3F21D0FEF783FB02468E
:10288C007B68D21ABB689A4202D8BB68002B16D15F
:10289C00FB6800221A63FB68202283F83D20FB684A
:1028AC00002283F83E20FB681B6C43F02002FB687F
:1028BC001A64FB68002283F83C20012307E0FB68C4
:1028CC001B685B6903F08003802BCAD10023184678
:1028DC001037BD4680BD80B584B000AFF860B960DC
:1028EC007A602DE0F86800F08DF80346002B01D0DB
:1028FC0001232DE0BB68B3F1FF3F21D0FEF742FB73
:10290C0002467B68D21ABB689A4202D8BB68002B7D
:10291C0016D1FB6800221A63FB68202283F83D2045
:10292C00FB68002283F83E20FB681B6C43F02002FE
:10293C00FB681A64FB68002283F83C20012307E043
:10294C00FB681B685B6903F00403042BCAD10023EA
:10295C0018461037BD4680BD80B584B000AFF86016
:10296C00B9607A6042E0FB681B685B6903F0100396
:10297C00102B19D1FB681B686FF010025A61FB68B1
:10298C0000221A63FB68202283F83D20FB6800229A
:10299C0083F83E20FB681A6CFB681A64FB68002203
:1029AC0083F83C20012329E0FEF7ECFA02467B6811
:1029BC00D21ABB689A4202D8BB68002B16D1FB68AE
:1029CC0000221A63FB68202283F83D20FB6800225A
:1029DC0083F83E20FB681B6C43F02002FB681A64F2
:1029EC00FB68002283F83C20012307E0FB681B688E
:1029FC005B6903F04003402BB5D100231846103718
:102A0C00BD4680BD80B483B000AF78607B681B6826
:102A1C005B6903F48063B3F5806F1BD17B681B6823
:102A2C006FF480625A617B6800221A637B682022F3
:102A3C0083F83D207B68002283F83E207B681B6C6A
:102A4C0043F004027B681A647B68002283F83C2004
:102A5C00012300E0002318460C37BD4680BC7047AC
:102A6C0080B586B000AF78607B68002B01D1012364
:102A7C006CE27B681B6803F00103002B00F087807D
:102A8C00924B5B6803F00C03042B0CD08F4B5B68F0
:102A9C0003F00C03082B12D18C4B5B6803F48033CE
:102AAC00B3F5803F0BD1894B1B6803F40033002B2B
:102ABC006CD07B685B68002B68D1012346E27B6895
:102ACC005B68B3F5803F06D1804A804B1B6843F4AA
:102ADC00803313602EE07B685B68002B0CD17B4A43
:102AEC007A4B1B6823F480331360784A774B1B684E
:102AFC0023F4802313601DE07B685B68B3F5A02F83
:102B0C000CD1724A714B1B6843F4802313606F4ADB
:102B1C006E4B1B6843F4803313600BE06B4A6B4BBA
:102B2C001B6823F480331360684A684B1B6823F4DA
:102B3C00802313607B685B68002B13D0FEF722FAAE
:102B4C00386108E0FEF71EFA02463B69D31A642B83
:102B5C0001D90323FAE15D4B1B6803F40033002B0E
:102B6C00F0D014E0FEF70EFA386108E0FEF70AFA2E
:102B7C0002463B69D31A642B01D90323E6E1534B7C
:102B8C001B6803F40033002BF0D100E000BF7B681E
:102B9C001B6803F00203002B63D04C4B5B6803F003
:102BAC000C03002B0BD0494B5B6803F00C03082B78
:102BBC001CD1464B5B6803F48033002B16D1434B7E
:102BCC001B6803F00203002B05D07B681B69012BEB
:102BDC0001D00123BAE13D493C4B1B6823F0F802BC
:102BEC007B685B69DB0013430B603AE07B681B6915
:102BFC00002B20D0364B01221A60FEF7C3F9386146
:102C0C0008E0FEF7BFF902463B69D31A022B01D943
:102C1C0003239BE12D4B1B6803F00203002BF0D028
:102C2C002A492A4B1B6823F0F8027B685B69DB009E
:102C3C0013430B6015E0264B00221A60FEF7A2F935
:102C4C00386108E0FEF79EF902463B69D31A022B65
:102C5C0001D903237AE11D4B1B6803F00203002BFF
:102C6C00F0D17B681B6803F00803002B3AD07B681B
:102C7C009B69002B19D0174B01221A60FEF782F9C1
:102C8C00386108E0FEF77EF902463B69D31A022B45
:102C9C0001D903235AE10D4B5B6A03F00203002BAD
:102CAC00F0D0012000F0DAFA1CE00A4B00221A6086
:102CBC00FEF768F938610FE0FEF764F902463B69EC
:102CCC00D31A022B08D9032340E100BF00100240A5
:102CDC0000004242800442429E4B5B6A03F00203B6
:102CEC00002BE9D17B681B6803F00403002B00F078
:102CFC00A6800023FB75974BDB6903F08053002BF8
:102D0C000DD1944A934BDB6943F08053D361914BC3
:102D1C00DB6903F08053BB60BB680123FB758E4BF2
:102D2C001B6803F48073002B18D18B4A8A4B1B68E9
:102D3C0043F480731360FEF725F9386108E0FEF761
:102D4C0021F902463B69D31A642B01D90323FDE018
:102D5C00814B1B6803F48073002BF0D07B68DB681D
:102D6C00012B06D17B4A7B4B1B6A43F00103136298
:102D7C002DE07B68DB68002B0CD1764A754B1B6A07
:102D8C0023F001031362734A724B1B6A23F0040392
:102D9C0013621CE07B68DB68052B0CD16D4A6D4B14
:102DAC001B6A43F0040313626A4A6A4B1B6A43F0C2
:102DBC00010313620BE0674A664B1B6A23F00103A5
:102DCC001362644A634B1B6A23F0040313627B682F
:102DDC00DB68002B15D0FEF7D5F838610AE0FEF75A
:102DEC00D1F802463B69D31A41F28832934201D999
:102DFC000323ABE0574B1B6A03F00203002BEED00E
:102E0C0014E0FEF7BFF838610AE0FEF7BBF80246A3
:102E1C003B69D31A41F28832934201D9032395E0DE
:102E2C004C4B1B6A03F00203002BEED1FB7D012BF4
:102E3C0005D1484A474BDB6923F08053D3617B684B
:102E4C00DB69002B00F08180424B5B6803F00C03C4
:102E5C00082B61D07B68DB69022B46D13F4B0022EB
:102E6C001A60FEF78FF8386108E0FEF78BF802461F
:102E7C003B69D31A022B01D9032367E0354B1B683E
:102E8C0003F00073002BF0D17B681B6AB3F5803F15
:102E9C0008D130492F4B5B6823F400327B689B6868
:102EAC0013434B602B482B4B5B6823F474127B68E9
:102EBC00196A7B685B6A0B4313434360274B0122FF
:102ECC001A60FEF75FF8386108E0FEF75BF802461F
:102EDC003B69D31A022B01D9032337E01D4B1B6826
:102EEC0003F00073002BF0D02FE01C4B00221A6073
:102EFC00FEF748F8386108E0FEF744F802463B69F3
:102F0C00D31A022B01D9032320E0124B1B6803F0C8
:102F1C000073002BF0D118E07B68DB69012B01D129
:102F2C00012313E00B4B5B68FB60FB6803F48032FE
:102F3C007B681B6A9A4206D1FB6803F470127B68AB
:102F4C005B6A9A4201D0012300E00023184618372F
:102F5C00BD4680BD0010024000700040600042423F
:102F6C0080B584B000AF786039607B68002B01D1EC
:102F7C000123D0E06A4B1B6803F007023B689A42BE
:102F8C0010D26749664B1B6823F007023B6813435A
:102F9C000B60634B1B6803F007023B689A4201D03D
:102FAC000123B8E07B681B6803F00203002B20D0E0
:102FBC007B681B6803F00403002B05D0594A594B5E
:102FCC005B6843F4E06353607B681B6803F00803A1
:102FDC00002B05D0534A534B5B6843F4605353604A
:102FEC005049504B5B6823F0F0027B689B6813439D
:102FFC004B607B681B6803F00103002B40D07B689F
:10300C005B68012B07D1474B1B6803F40033002B83
:10301C0015D101237FE07B685B68022B07D1414B04
:10302C001B6803F00073002B09D1012373E03D4BA7
:10303C001B6803F00203002B01D101236BE039491B
:10304C00384B5B6823F003027B685B6813434B606F
:10305C00FDF798FFF8600AE0FDF794FF0246FB6865
:10306C00D31A41F28832934201D9032353E02D4BFA
:10307C005B6803F00C027B685B689B009A42EBD1A7
:10308C00274B1B6803F007023B689A4210D924496E
:10309C00234B1B6823F007023B6813430B60204B48
:1030AC001B6803F007023B689A4201D0012332E00F
:1030BC007B681B6803F00403002B08D01949194BDB
:1030CC005B6823F4E0627B68DB6813434B607B68CE
:1030DC001B6803F00803002B09D01249114B5B68E5
:1030EC0023F460527B681B69DB0013434B6000F0D8
:1030FC0021F801460B4B5B681B0903F00F030A4ACE
:10310C00D35C21FA03F3094A1360094B1B68184678
:10311C00FDF7F6FE002318461037BD4680BD00BFF4
:10312C000020024000100240E03D0008000000209A
:10313C000400002090B48AB000AF2A4B3C1D0FCB8A
:10314C0084E80F00284B1B883B800023FB61002385
:10315C00BB6100237B6200237B6100233B62234B1A
:10316C005B68FB61FB6903F00C03042B02D0082B9A
:10317C0003D02DE01E4B3B622DE0FB699B0C03F052
:10318C000F0307F12802134413F8243C7B61FB69FD
:10319C0003F48033002B13D0144B5B685B0C03F0EF
:1031AC00010307F12802134413F8283CBB617B6927
:1031BC000F4A02FB03F2BB69B2FBF3F37B6204E040
:1031CC007B690C4A02FB03F37B627B6A3B6202E085
:1031DC00074B3B6200BF3B6A18462837BD4690BC84
:1031EC00704700BFCC3D0008DC3D000800100240D9
:1031FC0000127A0000093D0080B400AF024B1B683E
:10320C001846BD4680BC70470000002080B500AF5A
:10321C00FFF7F2FF0146054B5B681B0A03F007033F
:10322C00034AD35C21FA03F3184680BD0010024018
:10323C00F03D000880B500AFFFF7DEFF0146054BFF
:10324C005B68DB0A03F00703034AD35C21FA03F340
:10325C00184680BD00100240F03D000880B485B0D7
:10326C0000AF78600A4B1B680A4AA2FB03235B0A77
:10327C007A6802FB03F3FB6000BFFB685A1EFA601E
:10328C00002BF9D100BF1437BD4680BC704700BF7E
:10329C0000000020D34D621080B582B000AF786082
:1032AC007B68002B01D101233FE07B6893F83D3014
:1032BC00DBB2002B06D17B68002283F83C207868B7
:1032CC00FDF762FD7B68242283F83D207B681B6838
:1032DC007A681268D26822F40052DA60786800F0DA
:1032EC0029F87B681B687A681268126922F490428C
:1032FC001A617B681B687A681268526922F02A028C
:10330C005A617B681B687A681268D26842F4005272
:10331C00DA607B6800221A647B68202283F83D20E7
:10332C007B68202283F83E20002318460837BD46D0
:10333C0080BD000090B585B000AF78607B681B68DD
:10334C007A681268126922F440517A68D2680A438A
:10335C001A617B689A687B681B691A437B685B6996
:10336C001343BB607B681A687B681B68DB6823F4BB
:10337C00B05323F00C03B9680B43D3607B681B6814
:10338C007A681268526922F440717A6892690A4329
:10339C005A617B681B682C4A934203D1FFF74AFFA2
:1033AC00F86002E0FFF732FFF8607B681968FA6892
:1033BC0013469B0013449A001A447B685B689B007D
:1033CC00B2FBF3F3214AA2FB03235B091801FA6851
:1033DC0013469B0013449A001A447B685B689B005D
:1033EC00B2FBF3F2194BA3FB02435B09642404FB0D
:1033FC0003F3D31A1B013233144AA2FB03235B09D8
:10340C0003F0F0031844FA6813469B0013449A0027
:10341C001A447B685B689B00B2FBF3F20B4BA3FB7B
:10342C0002435B09642404FB03F3D31A1B013233FC
:10343C00064AA2FB03235B0903F00F0303448B60D2
:10344C0000BF1437BD4690BD003801401F85EB51BD
:10345C000C480D490D4A002302E0D458C4500433E3
:10346C00C4188C42F9D30A4A0A4C002301E01360B9
:10347C000432A242FBD3FDF727FD00F015F8FDF74F
:10348C006FFA70470000002070000020343E0008E6
:10349C007000002050010020FEE70000014B18686E
:1034AC00704700BF0C00002070B500250C4E0D4C71
:1034BC00A41BA410A54209D100F04EFC00250A4E15
:1034CC000A4CA41BA410A54205D170BD56F825309A
:1034DC0098470135EEE756F8253098470135F2E765
:1034EC002C3E00082C3E00082C3E0008303E000804
:1034FC0003460244934200D1704703F8011BF9E7DD
:10350C000EB44FF4027100B59CB0ADF814106FF00E
:10351C000041049107914FF6FF711DAB029006908C
:10352C00084853F8042BADF81610006802A9019353
:10353C0000F066F80022029B1A701CB05DF804EBD8
:10354C0003B070470C0000202DE9F0478E688246CE
:10355C009E420C469146984635D88A8912F4906F53
:10356C0031D00223256809696F1A656905EB450599
:10357C0095FBF3F508F101033B449D4238BF1D4612
:10358C00530531D5294600F047FB064650B90C23AC
:10359C00CAF80030A3894FF0FF3043F04003A381F9
:1035AC00BDE8F0873A46216900F0C4FAA38923F4F8
:1035BC00906343F08003A38126613E442660464617
:1035CC006561ED1BA560464528BF46464946324617
:1035DC00206800F0BAFAA36800209B1BA360236844
:1035EC001E442660BDE8F0872A4600F073FB0646B1
:1035FC000028E1D12169504600F0C2FAC7E700006B
:10360C002DE9F04F9DB003938B8980461C060D4627
:10361C0016460FD50B696BB9402100F0FDFA2860F6
:10362C00286128B90C23C8F800304FF0FF30C4E0F3
:10363C0040236B610023099320238DF8293030231C
:10364C004FF0010B8DF82A3037463C4614F8013BFD
:10365C00002B3CD1B7EB060A0BD053463246294619
:10366C004046FFF771FF013000F0A280099B5344E4
:10367C0009933B78002B00F09B8000234FF0FF3226
:10368C0004930793059206938DF853301A930522F1
:10369C002178504800F040FA671C049BD8B9D90631
:1036AC0044BF20228DF853201A0744BF2B228DF8DB
:1036BC00532022782A2A16D000210A20079A27465E
:1036CC003B780134303B092B50D9C9B111E0252B83
:1036DC00C0D02746B9E73F4A3C46801A0BFA00F0A7
:1036EC0018430490D3E7039A111D12680391002A22
:1036FC0001DB079204E0524243F002030792049369
:10370C003B782E2B0DD17B78791C2A2B32D1039B45
:10371C0002371A1D1B680392002BB8BF4FF0FF3302
:10372C0005932D4C03223978204600F0F5F938B179
:10373C004023001B03FA00F0049B0137034304935E
:10374C003978062225487E1C8DF8281000F0E4F903
:10375C00002835D0224BFBB9039B073323F007031A
:10376C0008330393099B4B4409936DE700FB02322A
:10377C000121A4E700230A24184605930F463A7842
:10378C000131303A092A03D9002BCAD00590C8E779
:10379C0004FB00200123F1E703AB00932A46114BF5
:1037AC0004A94046AFF30080B0F1FF3F8146D9D168
:1037BC00AB895B063FF539AF09981DB0BDE8F08FBA
:1037CC0003AB00932A46074B04A9404600F084F84B
:1037DC00EAE700BFF83D0008FE3D0008023E000885
:1037EC0000000000553500082DE9F04791461F46B2
:1037FC008A680B6906469342B8BF1346C9F8003075
:10380C0091F843200C46DDF8208012B10133C9F841
:10381C0000302368990642BFD9F800300233C9F84A
:10382C000030256815F0060507D104F1190AE36884
:10383C00D9F800209B1A9D422ADB94F84330226869
:10384C00003318BF012392062FD404F143023946EA
:10385C003046C047013022D02368E56803F00603E8
:10386C00042B18BF0025D9F800204FF0000908BF21
:10387C00AD1AA368226908BF25EAE5759342C4BF57
:10388C009B1AED181A344D451BD10020BDE8F0876A
:10389C000123524639463046C047013003D14FF020
:1038AC00FF30BDE8F0870135C1E73020E11881F821
:1038BC0043005A1C94F845102244023382F84310FA
:1038CC00C3E70123224639463046C0470130E6D0D3
:1038DC0009F10109D7E700002DE9F04317460A7EEC
:1038EC0085B06E2A984606460C460C9B01F1430E99
:1038FC0000F0BC801AD8632A2ED00AD8002A00F017
:10390C00C880582A00F08A8004F1420584F84220CD
:10391C002AE0642A01D0692AF6D121681A6811F0CC
:10392C00800F23D0111D1960136827E0732A00F053
:10393C00B48008D86F2A2AD0702AE5D10A6842F0E0
:10394C0020020A6003E0752A21D0782ADCD1782283
:10395C006F4984F8452064E01A6801F14205111D95
:10396C001960136884F842300123A3E011F0400F72
:10397C0002F104011960D7D0B2F90030002B03DA40
:10398C002D225B4284F8432062490A2217E020680A
:10399C00196810F0800F03D0081D18600B6806E042
:1039AC0010F0400F01F104001860F7D00B886F2A5B
:1039BC0014BF0A2208225749002084F84300656886
:1039CC00002DA560C0F29C80206820F004002060CF
:1039DC00002B3FD1002D40F095807546082A0BD165
:1039EC002368DA0708D5236962689A42DEBF302360
:1039FC0005F8013C05F1FF35AEEB05032361CDF86D
:103A0C0000803B4603AA21463046FFF7EDFE01300D
:103A1C0055D14FF0FF3005B0BDE8F08381F845205B
:103A2C003C492268186812F0800F00F104051D60F3
:103A3C0001D0036802E05506FBD50388D00744BFCC
:103A4C0042F0200222601BB9226822F02002226080
:103A5C001022B1E77546B3FBF2F002FB1033CB5CDE
:103A6C0005F8013D03460028F5D1B7E708681A6848
:103A7C0010F0800F496904D0101D1860136819608C
:103A8C0007E010F0400F02F1040018601368F6D044
:103A9C001980002375462361B1E71A68111D19605E
:103AAC00156800216268284600F036F808B1401B02
:103ABC00606063682361002384F843309FE72369C7
:103ACC002A4639463046C0470130A2D023689B07AE
:103ADC0007D5002504F11909E368039A9B1A9D4246
:103AEC0005DBE068039B9842B8BF184693E70123B7
:103AFC004A4639463046C04701308AD00135EBE79B
:103B0C00002BA7D10B7804F1420584F8423065E70D
:103B1C001A3E0008093E000810B5C9B20244904292
:103B2C00034601D1002010BD1C7801308C42F6D127
:103B3C00184610BD10B5431E0A44914200D110BD69
:103B4C0011F8014B03F8014FF7E7884210B501EB70
:103B5C00020303D8421E99420CD110BD9842F9D2EF
:103B6C008118D21AD34200D110BD13F8014D01F8BF
:103B7C00014DF7E711F8014B02F8014FEBE700009C
:103B8C0038B50546002943D051F8043C0C1F002BD6
:103B9C00B8BFE41800F0D4F81E4A1368104633B9C5
:103BAC00636014602846BDE8384000F0CAB8A342F0
:103BBC000BD921686218934201BF1A685B685218CE
:103BCC00226063600460EDE713465A680AB1A242B2
:103BDC00FAD919685818A0420BD12068014458181A
:103BEC0082421960DED110685268014419605A6033
:103BFC00D8E702D90C232B60D4E7206821188A421D
:103C0C0001BF116852680918216062605C60C9E7E5
:103C1C0038BD00BF9000002070B5CD1C25F0030509
:103C2C0008350C2D38BF0C25002D064601DBA942AA
:103C3C0003D90C233360002070BD00F081F8234AB7
:103C4C001468214691B9224C23681BB9304600F008
:103C5C0067F820602946304600F062F8431C26D1F4
:103C6C000C233046336000F06CF8E4E70B685B1B08
:103C7C001AD40B2B0FD90B60CC18CD50304600F05A
:103C8C0060F804F10B00231D20F00700C31A1BD0B1
:103C9C005A42E25070BD8C420BBF63684B68136094
:103CAC00636018BF0C46E9E70C464968CAE7C41CB8
:103CBC0024F00304A04205D0211A304600F030F85D
:103CCC000130CDD02560D9E770BD00BF9000002039
:103CDC0094000020F8B5074614460E4621B911464B
:103CEC00BDE8F840FFF798BF22B9FFF749FF25461A
:103CFC002846F8BD00F026F884420FD921463846F4
:103D0C00FFF78AFF05460028F2D031462246FFF71E
:103D1C0011FF31463846FFF733FFE9E73546E7E751
:103D2C0038B50023054C054608462360FDF7A0F87E
:103D3C00431C02D1236803B12B6038BD4C01002019
:103D4C007047704751F8040C0028A0F10400BCBF68
:103D5C000B58C01870470000F8B500BFF8BC08BC81
:103D6C009E467047F8B500BFF8BC08BC9E4670472D
:103D7C0043656C63697573203A2025752E25752073
:103D8C004300000046616872656E68656974203A8C
:103D9C002025752E25752046000000002530326444
:103DAC003A253032643A25303264000025303264D2
:103DBC002D253032642D3230253032640000000065
:103DCC0002030405060708090A0B0C0D0E0F101050
:103DDC0001020000000000000000000001020304CA
:103DEC00060708090000000001020304232D302BF4
:103DFC002000686C4C0065666745464700303132E0
:103E0C003334353637383941424344454600303136
:103E1C003233343536373839616263646566000095
:043E2C003101000858
:043E30000D01000878
:103E34000024F40010000000010000001000002025
:103E4400000000000000000000000000000000006E
:103E5400000000000000000000000000000000005E
:103E6400000000000000000000000000000000004E
:103E7400000000000000000000000000000000003E
:103E8400000000000000000000000000000000002E
:103E9400000000000000000000000000000000001E
:040000050800345D5E
:00000001FF
