:020000040800F2
:10000000005000207D1100081D1100081F1100087C
:10001000211100082311000825110008000000002C
:100020000000000000000000000000002711000890
:1000300029110008000000002B1100082D110008F4
:10004000C5110008C5110008C5110008C511000838
:10005000C5110008C5110008C5110008C511000828
:10006000C5110008C5110008C5110008C511000818
:10007000C5110008C5110008C5110008C511000808
:10008000C5110008C5110008C5110008C5110008F8
:10009000C5110008C5110008C5110008C5110008E8
:1000A000C5110008C5110008C5110008C5110008D8
:1000B000C5110008C5110008C5110008C5110008C8
:1000C000C5110008C5110008C5110008C5110008B8
:1000D000C5110008C5110008C5110008C5110008A8
:1000E000C5110008C5110008C51100080000000076
:1000F0000000000000000000000000000000000000
:0C01000000000000000000005FF808F1A3
:10010C0010B5054C237833B9044B13B10448AFF345
:10011C0000800123237010BD0C00002000000000A3
:10012C002012000808B5034B1BB103490348AFF379
:10013C00008008BD00000000100000202012000804
:10014C0038B50E4B054618784FF47A73B3FBF0F3C1
:10015C000B4A1068B0FBF3F000F092F8044658B963
:10016C000F2D09D8024629464FF0FF3000F054F805
:10017C00044B20461D6038BD012038BD0000002016
:10018C000800002004000020074A08B5136803206B
:10019C0043F01003136000F02DF80020FFF7D0FFA0
:1001AC0000F062FF002008BD00200240034A044B0F
:1001BC0011681B780B441360704700BF28000020A7
:1001CC0000000020014B1868704700BF2800002079
:1001DC0038B50446FFF7F6FF0546631C1EBF044BFB
:1001EC001B78E418FFF7EEFF401B8442FAD838BDA9
:1001FC0000000020074A0002D36800F4E06023F4FA
:10020C00E0631B041B0C43F0BF6343F40033034354
:10021C00D360704700ED00E0174B30B5DC68C4F3D9
:10022C000224C4F10703251D042B28BF0423062D2B
:10023C004FF0010598BF002405FA03F303F1FF33D7
:10024C0088BF033C1940A14005FA04F4013C22404C
:10025C00002842EA01024FEA0212AFBF00F16040EF
:10026C00064B00F00F00D2B2A5BFD2B200F5614030
:10027C001A5480F8002330BD00ED00E014ED00E0CE
:10028C000138B0F1807F0AD2F021064B064A586043
:10029C0082F823100020072298601A607047012012
:1002AC00704700BF10E000E000ED00E02DE9F74FD3
:1002BC0000221646654BDFF8A4E1DFF8A4C14FF02D
:1002CC0001080C6808FA06F808EA0404A0457FD176
:1002DC004D68122D00F0AF8000F28880022D00F0E6
:1002EC00A7807CD8002D00F08E80012D00F09E8020
:1002FC004FF00F09FF2C93BF824606F18045083D55
:10030C00D0F800B092BFB500D0F804B0AD0009FA37
:10031C0005F82BEA080802FA05F588BF00F1040A73
:10032C0048EA0505CAF80050D1F804A01AF0805F1D
:10033C004ED0474D464FAD6926F0030845F00105F8
:10034C00BD61BD6908F1804805F00105019508F50E
:10035C00803806F0030B019D4FEA8B0BD8F8085040
:10036C0009FA0BF925EA09093A4DA84268D005F5B6
:10037C008065A84266D005F58065A84264D005F575
:10038C008065A8420CBF0325042505FA0BF545EA48
:10039C000905C8F808501D681AF4803F14BF25439E
:1003AC00A5431D605D681AF4003F14BF2543A543A7
:1003BC005D609D681AF4801F14BF2543A5439D60A2
:1003CC00DD681AF4001F14BF2C4325EA0404DC601A
:1003DC000136102E7FF473AF03B0BDE8F08F032D00
:1003EC0022D0112D84D1CA68043281E71A4FBD4244
:1003FC0009D012D8DFF86C904D4504D009F580393E
:10040C004D457FF475AF8A68C2B1012A0CBFC0F8A4
:10041C001080C0F8148008226AE77545F3D0654552
:10042C00F1D0DFF84490EBE7002261E7CA685FE7A0
:10043C00CA6808325CE7CA680C3259E7042257E7ED
:10044C000025A2E70125A0E702259EE70004014054
:10045C000010024000080140000021100000311083
:10046C000000321000001110000022100AB10161CE
:10047C0070470904FBE70268536913F480630DD0DD
:10048C006FF480635361042320220364002303630D
:10049C0080F83C3080F83D200120704718467047AA
:1004AC002DE9F843044617469946C1F307488EB226
:1004BC002568B8F1010F0CBF6B69AB6936EA030311
:1004CC0014BF0120002008B9BDE8F8836B695A05F8
:1004DC0012D52B68202243F400732B606FF48063D9
:1004EC006B610423236400230120236384F83C30D4
:1004FC0084F83D20BDE8F8837B1CD9D04FB900238C
:10050C002022236384F83C3084F83D200320BDE88E
:10051C00F883FFF757FEA0EB09008742C8D2EEE73D
:10052C002DE9F843044690461F46089EC1F307493F
:10053C008DB22368B9F1010F0CBF5B699B6935EA79
:10054C0003030CBF01230023434502D00020BDE868
:10055C00F8837B1CEDD05FB900232022236384F841
:10056C003C3084F83D20032084F83E30BDE8F8830D
:10057C00FFF728FE801B8742DBD2EDE770B50446FF
:10058C000D46164623685B691B0601D5002070BD1D
:10059C002046FFF770FFA8B96A1CF3D065B9236C2D
:1005AC00202243F02003236400230320236384F8D8
:1005BC003C3084F83D2070BDFFF704FE801B854263
:1005CC00E0D2ECE7012070BD70B504460D4616462E
:1005DC0023685B695B0701D5002070BD2046FFF7DF
:1005EC004AFFA8B96A1CF3D065B9236C202243F0EA
:1005FC002003236400230320236384F83C3084F815
:10060C003D2070BDFFF7DEFD801B8542E0D2ECE79C
:10061C00012070BD38B5044608B9012038BD90F8EA
:10062C003D3003F0FF021BB980F83C2000F03EFD8A
:10063C002423226884F83D30136823F001031360EF
:10064C0000F0B8FB63682F4A934230D82E4A904290
:10065C00E3D92E4A2168B0FBF2F24A6001320A62F9
:10066C00284A0138934232D85B00B0FBF3F0431CAC
:10067C00C3F30B03042B38BF0423CB61226AE36959
:10068C00002013430B60E268236913438B60A2695B
:10069C0063691343CB600B6843F001030B602023A9
:1006AC00206484F83D30206384F83E0038BD184A3D
:1006BC009042B2D9154D4FF49672B0FBF5F5216806
:1006CC006A434D604FF47A75B2FBF5F2C6E7A26847
:1006DC0052B903EB4303B0FBF3F0431CC3F30B031E
:1006EC006BB143F40043C8E719225343B0FBF3F05A
:1006FC00431CC3F30B0313B143F44043BDE7012385
:10070C00BBE700BFA08601007F841E0040420F00A3
:10071C00FF083D002DE9FF4104461F460D4690465B
:10072C00FFF750FD94F83D300646202B04D00225EF
:10073C00284604B0BDE8F0810090192301225D49E0
:10074C002046FFF7EDFE0028F1D194F83C30012B48
:10075C00EDD0012384F83C3023681A68D2075EBFC1
:10076C001A6842F001021A601A6822F400621A60D8
:10077C00212284F83D20102284F83E20002222649D
:10078C00A2F580326785E262628DC4F824802285EE
:10079C00E26A042A04D0012A02D012F5803F04D167
:1007AC001A6842F480721A6002E0226B122AF7D0A7
:1007BC0000960A9B00224FF001112046FFF7B0FE75
:1007CC0028BB23692268B3F5804F12D105F0FE05D2
:1007DC00156133460A9A38492046FFF761FE0546F3
:1007EC00A0B9236803905A6903929B690393039BF6
:1007FC0050E0EB1103F0060343F0F00313612F49B3
:10080C0033460A9A2046FFF74BFE48B1236C236C03
:10081C00042B4FF0000307D184F83C30012587E707
:10082C002368EDB21D61D4E784F83C3003257FE7E3
:10083C0032460A992046FFF7A1FE40B1236C042BE7
:10084C00F4D12268136843F400731360E6E7616A1D
:10085C0020684B1C63620B78228D0361638D013B16
:10086C009BB263854769531E9BB27F0723850AD5CC
:10087C004BB18B1C63624B78023A0361638D22850A
:10088C00013B9BB2638532460A992046FFF79CFEDA
:10089C000028D3D1238D002BCAD121680A6842F4D9
:1008AC0000720A60202284F83C3084F83D2084F8E1
:1008BC003E303DE70200100002000100080001007C
:1008CC0003682DE9F341DB07054610D42B689F071D
:1008DC005ED42B68190700F195802B685A0700F13C
:1008EC00BF80EA69002A40F02D81002014E0904C72
:1008FC00636803F00C03042B07D0636803F00C034C
:10090C00082B0CD16368DE0309D523689C03DDD565
:10091C006B68002BDAD1012002B0BDE8F0816B6866
:10092C00B3F5803F10D1236843F480332360FFF785
:10093C0049FC064623689803C8D4FFF743FC801B88
:10094C006428F7D90320E7E79BB9236823F48033A5
:10095C002360236823F480232360FFF733FC0646CF
:10096C0023689903B2D5FFF72DFC801B6428F7D9B7
:10097C00E8E7B3F5A02F236803D143F48023236069
:10098C00D1E723F480332360236823F48023CDE75D
:10099C00674C636813F00C0F07D0636803F00C030B
:1009AC00082B10D16368DA030DD423689B0702D59A
:1009BC002B69012BAFD123686A6923F0F80343EA52
:1009CC00C203236085E72A695A4B6AB101221A6077
:1009DC00FFF7F8FB064623689F07ECD4FFF7F2FB02
:1009EC00801B0228F7D9ADE71A60FFF7EBFB064630
:1009FC00236898077FF56DAFFFF7E4FB801B022897
:100A0C00F6D99FE7AA694A4C4B4BDAB101221A601E
:100A1C00FFF7D8FB0646636A9B070DD54FF4FA52D5
:100A2C00464B1B68B3FBF2F3019300BF019B5A1EAC
:100A3C000192002BF9D150E7FFF7C4FB801B022871
:100A4C00E9D97FE71A60FFF7BDFB0646636A9F078B
:100A5C007FF543AFFFF7B6FB801B0228F6D971E791
:100A6C00334CE369D80024D40127E36943F0805365
:100A7C00E361E36903F080530093009B304E3368CD
:100A8C00D90518D5EB68012B26D1236A43F0010355
:100A9C002362FFF797FB41F288368046236A9B0757
:100AAC003FD5002F3FF41DAFE36923F08053E36182
:100ABC0017E70027E2E7336843F480733360FFF7EE
:100ACC0081FB80463368DA05DCD4FFF77BFBA0EBB7
:100ADC0008006428F6D935E7ABB9236A41F28838A7
:100AEC0023F001032362236A23F004032362FFF73C
:100AFC0069FB0646236A9807D3D5FFF763FB801B77
:100B0C004045F7D91EE7052B236A03D143F00403B4
:100B1C002362BAE723F001032362236A23F0040360
:100B2C00B6E7FFF74FFBA0EB0800B042B6D909E7D8
:100B3C0000100240000042428004424208000020A3
:100B4C0000700040224C636803F00C03082B3FF448
:100B5C00E2AE00231F4E022A33602BD1FFF732FB8B
:100B6C000746236899011FD42B6AB3F5803F05D142
:100B7C006268A96822F400320A436260696A62689A
:100B8C000B4322F474121343636001233360FFF7A9
:100B9C0019FB054623689A013FF5A7AEFFF712FB38
:100BAC00401B0228F6D9CDE6FFF70CFBC01B022830
:100BBC00D7D9C7E6FFF706FB054623689B017FF5EF
:100BCC0094AEFFF7FFFA401B0228F6D9BAE600BF35
:100BDC00001002406000424230B5194B87B002ACA5
:100BEC0003F11005224618685968083303C2AB425A
:100BFC001446F7D101238DF80430022311498DF8E6
:100C0C0005304B6803F00C02082A17D1C3F383425A
:100C1C0006A80244DB0312F8102C0CD54B680A48CA
:100C2C00C3F34043504306AA134413F8143CB0FBDF
:100C3C00F3F007B030BD05485043FAE70248F8E737
:100C4C00381200080010024000127A0000093D0022
:100C5C00544A2DE9F0411368054603F007038B4213
:100C6C000E462AD329688C0734D4CA0747D44D4A78
:100C7C00136803F007039E42C0F082802A684A4C36
:100C8C0012F0040F40F08780130706D563682A69B9
:100C9C0023F4605343EAC2036360FFF79DFF63686C
:100CAC00424AC3F30313D35CD840414B1860002075
:100CBC00FFF746FA0020BDE8F081136823F0070324
:100CCC000B431360136803F007039942CAD0012049
:100CDC00BDE8F081344B11F0040F1EBF5A6842F48A
:100CEC00E0625A60080742BF5A6842F460525A6088
:100CFC005A68A86822F0F00202435A60B5E76A68A5
:100D0C00294C012A23681CD113F4003FDFD06368FF
:100D1C0041F2883823F0030313436360FFF752FA60
:100D2C006B680746012B14D1636803F00C03042B8A
:100D3C009DD0FFF747FAC01B4045F5D90320BDE80D
:100D4C00F081022A02D113F0007FDFE713F0020FCB
:100D5C00DCE7022B0FD1636803F00C03082B86D061
:100D6C00FFF730FAC01B4045F5D9E7E7FFF72AFA41
:100D7C00C01B4045E2D8636813F00C0FF6D176E740
:100D8C00136823F0070333431360136803F007035E
:100D9C009E429CD172E76368E96823F4E0630B43DD
:100DAC00636071E7002002400010024075120008D9
:100DBC0008000020044B054A5B68C3F30223D35C94
:100DCC00034A1068D8407047001002408512000892
:100DDC00080000201FB500F0F003000143F00C02E6
:100DEC00C0B243F008038DF80D3040F00C038DF8C1
:100DFC000E30642340F008008DF80C208DF80F00A5
:100E0C00009303AA04234E210248FFF783FC05B08C
:100E1C005DF804FB2C0000201FB500F0F00300016E
:100E2C0043F00D02C0B243F009038DF80D3040F0D1
:100E3C000D038DF80E30642340F009008DF80C2062
:100E4C008DF80F00009303AA04234E210248FFF7EC
:100E5C0061FC05B05DF804FB2C00002008B53220C5
:100E6C00FFF7B6F93020FFF7B5FF0520FFF7B0F913
:100E7C003020FFF7AFFF0120FFF7AAF93020FFF772
:100E8C00A9FF0A20FFF7A4F92020FFF7A3FF0A20EF
:100E9C00FFF79EF92820FFF79DFF0120FFF798F937
:100EAC000820FFF797FF0120FFF792F90120FFF7C9
:100EBC0091FF0120FFF78CF90120FFF789F906203B
:100ECC00FFF788FF0120FFF783F9BDE808400C20ED
:100EDC00FFF780BF10B5441E14F8010F00B910BD08
:100EEC00FFF79AFFF8E710B590B02822002106A86A
:100EFC0000F088F90021142201A800F083F94FF4C6
:100F0C0080330122022407930E934FF4E01306A8BA
:100F1C0006920A920F930D94FFF7D2FC0F234FF415
:100F2C00806201930023214601A80294039304924A
:100F3C000593FFF78DFE10B010BD000010B588B002
:100F4C00FFF722F9FFF7CFFF102200210DEB020073
:100F5C0000F058F93B4B4FF400519A693A4842F073
:100F6C0010029A619A69002402F010020092009A11
:100F7C009A6942F020029A619A6902F02002019269
:100F8C00019A9A6942F004029A619A6902F0040289
:100F9C000292029A9A6942F008029A619B690122B4
:100FAC0003F008030393039BFFF760FA4FF400531D
:100FBC00049301230593022304A923480793069461
:100FCC00FFF774F9214A2248224B846080E80C0018
:100FDC004FF48043C460036144618461C461046262
:100FEC00FFF718FBFFF73AFF8020FFF7F3FE1A48D4
:100FFC00FFF770FFC020FFF7EDFE1848FFF76AFF00
:10100C009C20FFF7E7FE1648FFF764FFD420FFF79C
:10101C00E1FE1448FFF75EFF05241C20FFF7DAFE03
:10102C004FF4AF70FFF7D4F8013CF6D1052418202B
:10103C00FFF7D0FE4FF4AF70FFF7CAF8013CF6D1C2
:10104C00EAE700BF001002400010014000540040CD
:10105C002C000020A0860100481200085412000841
:10106C0062120008651200080E4B82B09A6942F0B9
:10107C0001029A619A6902F001020092009ADA69FF
:10108C0042F08052DA61DB69074A03F08053019326
:10109C00019B536823F0E06343F00073536002B08C
:1010AC00704700BF001002400000014010B504461C
:1010BC0086B01022002102A800F0A4F82268114B7F
:1010CC009A421CD1104C02A9A369104843F00803A2
:1010DC00A361A36903F008030093009BC023029350
:1010EC001223039303230593FFF7E0F8E36943F41A
:1010FC000013E361E36903F400130193019B06B051
:10110C0010BD00BF0054004000100240000C014014
:10111C007047FEE7FEE7FEE7FEE770477047704753
:10112C00FFF744B80F4B1A6842F001021A60596875
:10113C000D4A0A405A601A6822F0847222F48032F6
:10114C001A601A6822F480221A605A6822F4FE028D
:10115C005A604FF41F029A604FF00062034B9A6082
:10116C00704700BF001002400000FFF800ED00E0E7
:10117C00002103E00B4B5B58435004310A480B4BE6
:10118C0042189A42F6D30A4A02E0002342F8043B82
:10119C00084B9A42F9D3FFF7C5FF00F00FF8FFF7A1
:1011AC00CDFE704798120008000000200C000020B3
:1011BC000C00002080000020FEE7000070B5002528
:1011CC000C4E0D4CA41BA410A54209D100F022F822
:1011DC0000250A4E0A4CA41BA410A54205D170BDD3
:1011EC0056F8253098470135EEE756F825309847E4
:1011FC000135F2E7901200089012000890120008D6
:10120C009412000803460244934200D1704703F83D
:10121C00011BF9E7F8B500BFF8BC08BC9E46704747
:0C122C00F8B500BFF8BC08BC9E46704737
:1012380002030405060708090A0B0C0D0E0F10100F
:1012480048454C4C4F20574F524C44004C43442087
:10125800323078342044454D4F00425900436F6E78
:1012680074726F6C6C65727354656368000000007B
:10127800000000000001020304060708090000003E
:08128800000102030400000054
:041290003101000820
:041294000D01000840
:0C129800010000001000000000A24A0449
:040000050800117D61
:00000001FF
